:100000000C9438000C9442000C9442000C94420072
:100010000C9442000C9442000C9442000C94420058
:100020000C9442000C9442000C9442000C94420048
:100030000C9442000C9442000C9442000C94420038
:100040000C9442000C9442000C9442000C94420028
:100050000C9442000C9442000C9442000C94420018
:100060000C9442000C9442000C9442000C94420008
:1000700011241FBECFEFD0E1DEBFCDBF0E944400F0
:100080000C9455000C94000081E081B912B891E005
:1000900082B1892782B92FEF33ED80E321503040C0
:0E00A0008040E1F700C00000F3CFF894FFCFDE
:10DFEC000000000000000000000000000000000025
:04DFFC000000000021
:00000001FF
